:020000040800F2
:10000000083D002069020008B32D0008E721000820
:10001000B12D0008890A00084534000800000000DE
:100020000000000000000000000000009D0100082A
:100030005D0B000800000000E101000875310008B8
:10004000830200088302000883020008830200087C
:10005000830200088302000883020008830200086C
:10006000830200088302000883020008830200085C
:10007000830200088302000883020008830200084C
:10008000830200088302000883020008830200083C
:10009000830200088302000883020008830200082C
:1000A000830200088302000883020008830200081C
:1000B0008302000883020008F1310008830200086F
:1000C00083020008830200088302000883020008FC
:1000D00083020008830200088302000883020008EC
:1000E0005F0B0008830200088302000800F002F89A
:1000F00000F045F80AA090E8000C82448344AAF17D
:100100000107DA4501D100F03AF8AFF2090EBAE87A
:100110000F0013F0010F18BFFB1A43F0010318473B
:1001200084650000A4650000103A24BF78C878C137
:10013000FAD8520724BF30C830C144BF04680C60ED
:10014000704700000023002400250026103A28BF35
:1001500078C1FBD8520728BF30C148BF0B60704739
:10016000752900F0B781002070471FB59DE8030096
:1001700000F034FB00F0FFF91FBD10B510BD00F01A
:1001800001FC1146FFF7F1FF03F064FD00F01FFCD6
:1001900003B4FFF7F2FF03BC00F050FC224B1968D8
:1001A0000868B0E8F00F80F30988BFF36F8F4FF055
:1001B000000080F311884EF00D0E70470000000023
:1001C00006480068006880F3088862B661B6BFF32D
:1001D0004F8FBFF36F8F00DF00BF00BF08ED00E05F
:1001E000EFF30980BFF36F8F0F4B1A6820E9F00F10
:1001F000106008B54FF0500080F31188BFF34F8FA7
:10020000BFF36F8F04F052FD4FF0000080F31188B0
:10021000BDE8084019680868B0E8F00F80F3098865
:10022000BFF36F8F704700BF9C000020EFF3058085
:10023000704700000B49D1F800C04A685CF8043BE5
:100240001068184442F8040B8C4528BFA1F1DC0C5F
:100250008A4228BFA1F1DC02C1F800C04A6020F048
:10026000004070479C3600200948804709480047F5
:10027000FEE7FEE7FEE7FEE7FEE7FEE7FEE7FEE756
:10028000FEE7FEE704480549054A064B70470000B3
:10029000ED310008ED00000808370020083D00207F
:1002A000083900200839002070B5064600F07AFAB7
:1002B000056806F10B0020F00704B4429CBF002043
:1002C00070BD2B466A68BAB11068A04210D304F121
:1002D000080188423CBF5068586007D35168101924
:1002E00041601168091B016058601460101D70BDE9
:1002F00013465268002AE7D12146284600F05AFAF0
:100300000028DED170BD70B50446051F00F04AFA22
:100310000068002C14BF446870BD002C18BFAC42AC
:100320003CBF20466468F8D301680A18AA4218BF87
:10033000456003D12A6805461144016028684119C7
:10034000A1421CBF6C6070BD61686960216808448F
:10035000286070BD53EA020C00F069802DE9F04B73
:100360004FF00006002B1FBFB3FA83F503FA05F424
:1003700024FA05F65E4012BF1643B2FA82F502FA7D
:1003800005F4C5F120051EBF22FA05FC44EA0C0461
:10039000203556EA044C4FEA144418BF641C4FF051
:1003A00000084FF00009904271EB030C39D300298B
:1003B00019BFB1FA81F701FA07F6B0FA80F700FA2F
:1003C00007F6C7F120071EBF20FA07FC46EA0C0615
:1003D0002037B6FBF4FCA7EB0507103F07F01F0B17
:1003E000CBF120060CFA0BFB2CFA06F644BFB34601
:1003F0000026202FA4BF5E464FF0000B5BEA060CE0
:1004000008BF4FF0010B19EB0B09ABFB027C48EB6B
:100410000608C01B06FB02CC0BFB03CC71EB0C01E6
:10042000C1E70B46024641464846BDE8F08B13B58E
:100430004FF000004FF00001AFF30080BDE81C401A
:10044000704700000FB41CB5074B06AA7B446946F1
:100450000090059800F057FA0020694600F066FA0F
:100460001CBC5DF814FB0000DD0400002DE9F04128
:100470000E460446002020622046E168884730B3DB
:10048000252805D0D4E901219047206A401CF2E7D5
:10049000E168204600278847050018D0A5F14100F3
:1004A000192802D820354FF40067324629462046E5
:1004B0002760FFF755FE40B1012804D0F61D26F055
:1004C00007060836D8E7361DD6E72846DAE7206A59
:1004D000BDE8F0812DE9F041064600241068752939
:1004E000314616A510D0AFF30080002802DA404252
:1004F00013A507E031688A0701D512A502E0490774
:1005000004D511A5012401E0AFF3008000210A22E7
:1005100006F1240709E0B0FBF2FCB0FBF2F302FBAA
:100520001C00303078541846491C0028F3D123466B
:100530002A463046BDE8F04100F086B900000000D0
:100540002D0000002B000000200000000B4910B51A
:10055000A1F17C020A4CC2E93712372106E000EB18
:10056000104342F82130074B00FB03400B1EA1F162
:100570000101F4DC10BD0120E8E700003C3600205A
:10058000E119D666CD0D010040EA0103024630B5FF
:100590009B0710D14FF0013400E008C208C91D1BB1
:1005A0009D4315EAC41FF8D013F0FF0102F8011BA8
:1005B0000DD01B0AF8E711F8013B002B02F8013BB4
:1005C00005D011F8013B002B02F8013BF3D130BDFF
:1005D00010B5431C02E010F8011B71B18107FAD17C
:1005E0004FF0013202C88C1A8C4314EAC211F9D0C0
:1005F000C01A0A0603D0C01E10BDC01A10BD0A04DE
:1006000001D0801E10BD0902FCD0401E10BD032A7F
:1006100040F2308010F0030C00F0158011F8013B1F
:10062000BCF1020F624498BF11F801CB00F8013B06
:1006300038BF11F8013BA2F1040298BF00F801CBCA
:1006400038BF00F8013B11F0030300F02580083AA1
:10065000C0F0088051F8043B083A51F804CBA0E8F8
:100660000810F5E7121D5CBF51F8043B40F8043B4D
:10067000AFF30080D20724BF11F8013B11F801CB82
:1006800048BF11F8012B24BF00F8013B00F801CB53
:1006900048BF00F8012B704710B5203AC0F00B801E
:1006A000B1E81850203AA0E81850B1E81850A0E876
:1006B0001850BFF4F5AF5FEA027C24BFB1E81850D0
:1006C000A0E8185044BF18C918C0BDE810405FEA40
:1006D000827C24BF51F8043B40F8043B08BF7047BC
:1006E000D20728BF31F8023B48BF11F8012B28BFC1
:1006F00020F8023B48BF00F8012B704702F0FF03CF
:1007000043EA032242EA024200F002B84FF000023C
:100710000429C0F0128010F0030C00F01B80CCF113
:10072000040CBCF1020F18BF00F8012BA8BF20F881
:10073000022BA1EB0C0100F00DB85FEAC17C24BFD5
:1007400000F8012B00F8012B48BF00F8012B70477F
:100750004FF0000200B5134694469646203922BF5A
:10076000A0E80C50A0E80C50B1F12001BFF4F7AFA5
:10077000090728BFA0E80C5048BF0CC05DF804EB87
:10078000890028BF40F8042B08BF704748BF20F8F5
:10079000022B11F0804F18BF00F8012B70477047F3
:1007A0007047704700487047AC360020704770476C
:1007B0007047704738B504460A4600206946AFF3D3
:1007C0000080002808BF38BD02460099204600F08E
:1007D000B7F8012038BD012000F0CCB8F8B5AFF370
:1007E0000080054600200C46102000BF0646A819D0
:1007F000A0420DD9324669460020AFF300800700C1
:1008000008BF00F0B7F80098A04218BF0546C41909
:10081000FFF7C8FF05600746F01D20F007004619E6
:10082000284600F00AF8B44208BFF8BDA21B3146C2
:100830003868BDE8F84000F083B800210160C0E9E5
:1008400001107047102070472DE9F0470D4699467A
:100850009246044600F124080168880604D5E06940
:1008600021F01001216000E00120A84201DD471BBA
:1008700000E00027A1697A1902EB0900081AA061BB
:100880002078C00602D42046AFF30080002608E09E
:10089000D4E901211AF806009047206A401C761C12
:1008A00020624E45F4DB2078C0060AD52046AFF31F
:1008B000008006E0D4E9012130209047206A401CE6
:1008C0002062381EA7F10107F4DC07E0D4E901211A
:1008D00018F805009047206A401C2062281EA5F1E8
:1008E0000105F3DC2046AFF300802078000602D536
:1008F0000220BDE8F0870120FBE7000001694A1CE7
:1009000002610878704700B58FB0CDE90131002150
:10091000059105497944CDE9031011466846FFF772
:10092000A5FD0FB000BD0000E5FFFFFF0A6802F85B
:10093000010B0A607047000000487047A436002091
:10094000034640688C46002818BF88423CBF0346D7
:100950004068F8D318681844884207D00CF10300A7
:1009600020F00700001D411A521A0146081D0A60B6
:10097000FFF7C9BC10B500F039F8BDE8104000F031
:100980002FB870477546FFF7D7FFAE46050069469A
:10099000534620F00700854618B020B5FFF772FCDB
:1009A000BDE820404FF000064FF000074FF0000870
:1009B0004FF0000B21F00701AC46ACE8C009ACE8F1
:1009C000C009ACE8C009ACE8C0098D46704710B555
:1009D0000446AFF300802046BDE81040FFF7D8BBC7
:1009E000002801D000F02AB87047000010B5012897
:1009F00005D0002103A000F027F8012010BD09A1B7
:100A0000F8E7000053494752544D454D3A204F7581
:100A100074206F662068656170206D656D6F7279F6
:100A2000000000003A2048656170206D656D6F72AE
:100A30007920636F727275707465640001491820C3
:100A4000ABBEFEE72600020070B505460C460A2044
:100A500000E06D1C00F011F835B128780028F8D1BD
:100A600002E0641C00F009F814B120780028F8D1E5
:100A7000BDE870400A20AFF3008008B569468DF8E4
:100A800000000320ABBE08BDFEE7000000280448BC
:100A90004FF0000101D001F015BB01F061BB000077
:100AA0001809002008B50548002300901A46C821FF
:100AB00003A004F0F9FE0549086008BD3F340008B2
:100AC00054696D6572536F756E640000800000207C
:100AD000F0B587B00F4605461C216846FFF738FE83
:100AE0000021174801F03CFB154801F07DF814483F
:100AF0001449002401604721C0E90114124E96FBFD
:100B0000F5F1491EC0E903148021C0E9054101F057
:100B100099F86020009096FBF5F0401E7843642120
:100B200090FBF1F0CDE901040022694604480494E9
:100B300001F033FA0021024801F0C4FA07B0F0BD19
:100B400018090020002C014040420F0002484FF0DD
:100B5000FF31406804F0CCBB5C000020704710B54A
:100B60004FF4806000F026F8BDE810404FF480504C
:100B700000F020B872B6FEE70148C0687047000078
:100B80006800002001480068704700005C000020F9
:100B9000014880687047000018000020B0F5806FA1
:100BA00004D0B0F5805F03D102F07CBA01F028BE1A
:100BB00070470000044910B50A68024202D008607C
:100BC000FFF7ECFF10BD0000140401402DE9F84FC1
:100BD000DFF8B8910024A9F1040B23460F2709F18F
:100BE000040AABF1040EC9E00125A5402A40AA423F
:100BF0007DD1674ED1F804C0ACEB0608B44532D0C5
:100C000014DCBCF1030F3AD009DCBCF1000F2AD090
:100C1000BCF1010F1CD0BCF1020F31D11DE0BCF1C1
:100C2000110F17D0BCF1120F2AD119E0B8F5881FA7
:100C300019D006DCB8F5803F15D0B8F5801F1FD15C
:100C400011E0B8F5001F0ED0B8F5041F18D10AE066
:100C5000CB6815E0CB681B1D12E0CB6808330FE0B2
:100C6000CB680C330CE08B682BB1012B4FF00803E1
:100C700003D0456104E0042302E0056100E00023A5
:100C8000FF2A01D8064601E000F104064FEA840578
:100C900001D9A5F12005D6F8008007FA05FC28EA5D
:100CA0000C0803FA05F548EA0508C6F800804D6807
:100CB000ED0062D5374DAE6946F00106AE61AD6913
:100CC00024F0030605F001050095334D06EB050CF5
:100CD000DCF80850A607360F07FA06F825EA0805DB
:100CE000DFF8B880404503D14FF0000817E044E03A
:100CF000DFF8AC80404502D14FF001080FE0DFF88B
:100D0000A480404502D14FF0020808E0DFF8988047
:100D1000404502D14FF0030801E04FF0040808FA03
:100D200006F848EA0508CCF808804D68D9F8006054
:100D3000ED024D4601D5164300E096432E604D6806
:100D4000DAF80060AD02554601D5164300E096433F
:100D50002E604D68DBF80060AD035D4601D516439B
:100D600000E096432E604D68DEF80060ED037546A6
:100D700001D5164300E096432E60641C0D682A4698
:100D8000E5407FF431AFBDE8F88F00000804014072
:100D90000000111000100240000001400008014056
:100DA000000C014000100140001401408068084020
:100DB00000D00120704700000148806870470000A3
:100DC0008C00002070B5040025D094F83D0000256B
:100DD00020B984F83C50204600F014FB242084F80D
:100DE0003D002068016821F0010101602068016870
:100DF00041F4004101602068016821F40041016074
:100E000000F0CCFC4D4A6168914201D84C4900E0A9
:100E10004C49884201D2012070BD4B492368B0FB88
:100E2000F1F15E6826F03F060E435E606368934210
:100E300006D94FF4967359434FF47A73B1FBF3F12B
:100E40002368491C1E6A26F03F0631431962616817
:100E5000914210D84900401EB0FBF1F2521CC2F37F
:100E60000B02042A01D2042022E0B0FBF1F0401C66
:100E7000C0F30B001CE0A268F2B301EBC10303EB6B
:100E80000116431EB3FBF6F35B1C43F480431B05C2
:100E900049D092B301EBC10202EB0111401EB0FB3D
:100EA000F1F0401CC0F30B0040F4804040F40040DF
:100EB0002168CA694CF6FF739A431043C861D4E9AC
:100EC000071001432068026822F0C002114301604C
:100ED000D4E9030101432068826848F2FF339A4352
:100EE00011438160D4E9050108432168CA6822F0F2
:100EF000FF021043C86001E00EE016E020680168C0
:100F000041F0010101602564202084F83D00256343
:100F100084F83E50002070BD01EB4106431EB3FB38
:100F2000F6F35B1CB3E70120C2E701EB4101401E71
:100F3000B0FBF1F0401CC0F30B00B7E7A086010046
:100F400080841E0000093D0040420F002DE9F84F4B
:100F50001F4690468A460446DDF82890FFF72CFF8E
:100F6000054694F83D0020287FD1192301224049ED
:100F70002046009501F09CFA002876D194F83C00B8
:100F8000012872D0012084F83C0020680168C9075C
:100F900003D1016841F0010101602068016821F47A
:100FA00000610160212084F83D00102084F83E009B
:100FB00000262664C4F824806785608D20852D482E
:100FC000E0622B464A465146204601F025F990B989
:100FD000206841698069009036E02A4649462046EB
:100FE00001F044FB50B1206C042804D12068016852
:100FF00041F4007101600120BDE8F88F606A21684A
:1010000000780861606A401C6062618D491E6185DC
:10101000218D491E89B2218522685369DB435B0714
:101020000BD451B100781061606A401C6062608D21
:10103000401E6085208D401E20852A464946204658
:1010400001F00AFA0028CED1208D0028C5D154F82D
:101050003D0B016841F400710160202004F81E0975
:10106000E67766770020C7E7FFE70220C4E70000C5
:10107000020010000000FFFF2DE9FF4F83B00025A4
:10108000DDE910799A4693460446DDF848800095DC
:10109000FFF792FE064694F83D0020287CD11923E4
:1010A000012288492046009601F002FA0028F5D175
:1010B00094F83C0001286FD0012084F83C0020689F
:1010C0000168C90703D1016841F00101016020688E
:1010D000016821F400610160222084F83D00402075
:1010E00084F83E0025646762A4F82A90608D20850C
:1010F0007548E062CDE9008653465A462046049979
:1011000001F0D8F800287CD1208DDFF8C09120278D
:1011100068B1012814D00228206801681ED041F46B
:10112000806101602068416980690090BCE02068AE
:10113000416981690091016841F400710160B3E087
:101140002068016821F48061016072B620684169FD
:1011500081690091016841F400710AE041F4006185
:10116000016072B62068416981690091016821F4CB
:101170008061016062B697E0032865D801280CD031
:10118000022843464FF000024946204600960BD005
:1011900001F08EF9A8BB0CE091E0324641462046B2
:1011A00001F02CFA68BB72E001F082F948BB72B61C
:1011B00033E02068016821F48061016072B6206824
:1011C0000069616A0870606A401C6062208D401E80
:1011D0002085608D401E60853D4846F2A81100685C
:1011E000B0FBF1F0C0EBC00000EB80000090401EAF
:1011F000009007D020684069C04340070DD5009893
:10120000F5E727E044F8305F6773A573206940F085
:101210002000206162B625731CE02068016841F45B
:101220000071016020680069616A0870606A401C92
:101230006062218D491E2185618D491E618562B6DE
:1012400021680969017026E032464146204601F0D6
:10125000D5F918B1012007B0BDE8F08F206800690A
:10126000616A0870606A401C6062208D401E81B215
:101270002185608D401E608520684269D2435207F7
:1012800012D4032903D1016821F480610160206830
:101290000069616A0870606A401C6062208D401EAF
:1012A0002085608D401E6085208D00287FF464AF0E
:1012B00084F83D7084F83E5084F83C50CBE702201F
:1012C000C9E70000020010000000FFFF0400010059
:1012D000980000202DE9FF4F83B09A46DDE9119771
:1012E00093460446DDF84080FFF766FD054694F816
:1012F0003D0020287FD11923012240492046009536
:1013000001F0D6F8002876D194F83C00012872D07C
:10131000012084F83C0020680168C90703D10168F6
:1013200041F0010101602068016821F40061016061
:10133000212084F83D00402084F83E0000262664E9
:10134000C4F82480A4F82A90608D20852C48E0629F
:10135000CDE9007553465A462046049901F028F815
:1013600070B930E02A463946204601F07FF958B17D
:10137000206C042804D12068016841F400710160E8
:10138000012007B0BDE8F08F606A2168007808612D
:10139000606A401C6062218D491E89B22185628D80
:1013A000521E628522685369DB435B070BD469B127
:1013B00000781061606A401C6062208D401E2085AC
:1013C000608D401E6085208D0028CBD12A4639468D
:1013D000204601F041F80028CAD154F83D0B0168BD
:1013E00041F400710160202004F81E09E677667759
:1013F0000020C6E7FFE70220C3E70000020010005C
:101400000000FFFF30B585B00021009101910291ED
:1014100003911E4D03681E4C122103221D48AB424E
:1014200016D1A36943F00803A361A369039203F0F3
:1014300008030493C023CDE900316946FFF7C6FBDA
:10144000E06940F40010E061E06900F4001019E088
:10145000114DAB4217D1A36943F00803A361A369FF
:10146000039203F0080304934FF44063CDE9003185
:101470006946FFF7ABFBE06940F48000E061E0699A
:1014800000F48000049005B030BD0000005400401E
:1014900000100240000C01400058004002488168E2
:1014A00002781144816070478C000020074810B515
:1014B000016841F010010160032000F0A7F80F203F
:1014C00000F006F800F050F8002010BD00200240A7
:1014D00030B505461F4887B0C16941F00401C161BC
:1014E000C06906A900F00400009001A800F036F9D8
:1014F0000498B0B100F052F940001749174AB0FB08
:10150000F1F11748491E0260416040F2E7320021C4
:10151000C0E903218160816100F094FB040003D0E5
:1015200015E000F03BF9E8E70D4800F0DBFB0400B4
:101530000DD11E2000F03CF8102D07D200222946C4
:101540001E2000F043F80748056000E0012407B0C2
:10155000204630BD0010024040420F00000800400D
:1015600060090020900000200F4808B5816941F013
:1015700001018161816901F001010091C16941F0BE
:101580008051C161C069002200F0805000900F219D
:10159000901E00F01BF80548416821F0E06141F021
:1015A0000071416008BD00000010024000000140D1
:1015B000002809DB00F01F02012191404009800052
:1015C00000F1E020C0F8001170470000F0B40E4BAD
:1015D0001B680C46C3F30223C3F10705042D00D991
:1015E0000425191D072901D2002300E0DB1E012676
:1015F00006FA05F1491E214099409E40761E16408C
:101600003143F0BC01F01FBF0CED00E0064900F0D3
:10161000070208684FF6FF03184040EA0220034A19
:1016200010430860704700000CED00E00000FA0570
:101630002DE9F0470F46050061D0434E306800F0B9
:101640000700B84209D2306820F007003843306004
:10165000306800F00700B84251D128683B4C810740
:1016600012D5400703D5606840F4E06060602878D8
:10167000000703D5606840F4605060606068A96846
:1016800020F0F000084360602878C00728D0686820
:10169000012810D02168022810D0890700292EDAED
:1016A000616821F0030101436160FFF785FB80461B
:1016B00041F288390DE021688903EFE78901EDE700
:1016C000FFF77AFBA0EB0801494502D90320BDE8EA
:1016D000F0876068696800F00C00B0EB810FEFD113
:1016E000306800F00700B8420BD9306820F00700DE
:1016F00038433060306800F00700B84201D0012064
:10170000E5E72878400705D56068E96820F4E060DF
:10171000084360602878000706D56068296920F4CE
:10172000605040EAC100606000F048F86168084A13
:10173000C1F30311515CC8400649086006480068BF
:10174000FFF7C6FE0020C2E7002002400010024062
:101750007E66000898000020900000200F220260A2
:101760000C4A536803F003034360536803F0F0032B
:101770008360536803F4E063C36052684FF4E0632E
:1017800003EAD20202610448006800F00700086022
:101790007047000000100240002002400448054944
:1017A00000684968044AC1F30221515CC84070478F
:1017B00098000020001002408E6600080E4A516812
:1017C0000E4801F00C03042B11D0082B0FD10C484C
:1017D000C1F38343C903C05C0AD55168084AC1F309
:1017E0004041921E515C054A5043B0FBF1F07047F6
:1017F00004494843704700000010024000127A007C
:101800006E66000800093D002DE9F84F040070D015
:101810002078C04DC00749D06868C0F38100012816
:1018200007D06868C0F38100022809D16868C00346
:1018300006D52868800339D560680028E7D035E0F0
:101840006068B0F5803F0BD010B1B0F5A02F11D07B
:10185000286820F480302860286820F4802002E086
:10186000286840F480302860606890B1FFF7A4FADF
:1018700006460AE0286840F480202860F0E700BFB0
:10188000FFF79AFA801B642873D828688003F7D57D
:101890000CE0FFF791FA064605E000BFFFF78CFA6F
:1018A000801B6428F0D828688003F7D420789A4EEB
:1018B00080074FF001094FF0000839D5686810F033
:1018C0000C0F07D06868C0F38100022809D168684E
:1018D000C00306D42868800714D52069012808D1E0
:1018E00010E02069B0B1C6F80090FFF765FA07462E
:1018F00005E00AE1FFF760FAC01B0228C4D8286897
:101900008007F7D52868616920F0F80040EAC10037
:1019100028600DE0C6F80080FFF74EFA074604E0A5
:10192000FFF74AFAC01B022823D828688007F7D49B
:10193000207800072CD57948A169D9B1C0F800906A
:10194000FFF73AFA074604E0FFF736FAC01B022811
:101950000FD8686A8007F7D571484FF4FA510068CC
:10196000B0FBF1F0009000BF0098411E0091FAD248
:101970000EE080E0C0F80080FFF71EFA074604E0A2
:10198000FFF71AFAC01B022875D8686A8007F7D4D7
:101990002078400760D5E8690027C00008D4E869CE
:1019A00040F08050E861E869012700F08050009025
:1019B0005C480168C90513D40168834641F480710D
:1019C0000160FFF7F9F9824606E000BFFFF7F4F97E
:1019D000A0EB0A0064284ED8DBF80000C005F5D55E
:1019E000E06801280AD008B1052813D0286A20F041
:1019F00001002862286A20F0040002E0286A40F012
:101A000001002862E06841F2883B98B1FFF7D4F901
:101A100082460BE0286A40F004002862EEE700BF2F
:101A2000FFF7CAF9A0EB0A0159455AD8286A80077E
:101A3000F6D50CE0FFF7C0F9824605E0FFF7BCF9E8
:101A4000A0EB0A0159454CD8286A8007F6D41FB18B
:101A5000E86920F08050E861E06988B36968C1F303
:101A60008101022944D00228C6F8608004D0FFF723
:101A7000A3F9044638E034E0FFF79EF9074604E096
:101A8000FFF79AF9C01B02282BD828688001F7D4E9
:101A9000206AB0F5803F05D16868A16820F4003065
:101AA00008436860D4E908010843696821F47411A7
:101AB00008436860C6F86090FFF77EF9044606E0C8
:101AC00025E000BFFFF778F9001B022809D8286835
:101AD0008001F7D51BE000BFFFF76EF9001B02285D
:101AE00002D90320BDE8F88F28688001F4D40EE005
:101AF0000128F7D06868226A00F48031914204D14D
:101B0000616A00F47010884201D00120EAE70020E9
:101B1000E8E7000000100240000042428004424218
:101B200098000020007000407047704710B590F892
:101B30003C20012A22D0012280F83C20CA688C680F
:101B400022F4407222434C6822F4806222430C68E3
:101B500022F4006222430C6922F4805222434C6931
:101B600022F400522243C969002322F480420A432E
:101B700001684A6480F83C30002010BD022010BD8E
:101B800070B590F83C20012A26D0012480F83C4012
:101B9000022280F83D2003685A689D6822F0700692
:101BA0000A6832435A600D4B02689A4208D0B2F17B
:101BB000804F05D00A4B9A4202D00A4B9A4204D178
:101BC000496825F080031943916080F83D40002169
:101BD00080F83C10084670BD022070BD002C01400A
:101BE000000400400008004010B50446022084F8BC
:101BF0003D002068016A41F21112114207D1016AC9
:101C00009210114203D1016821F0010101602046C8
:101C100000F046F8002084F8460084F83E0084F87E
:101C20003F0084F8400084F8410084F8420084F8C2
:101C3000430084F8440084F8450084F83D0084F8AB
:101C40003C0010BD10B5040003D094F83D0010B165
:101C500007E0012010BD002084F83C00204600F081
:101C60002DF8022084F83D00211D206801F0C6FAFD
:101C7000012084F8460084F83E0084F83F0084F890
:101C8000400084F8410084F8420084F8430084F85E
:101C9000440084F8450084F83D00002010BD000099
:101CA00000680449884204D10348816921F4006135
:101CB00081617047002C01400010024008B50068A7
:101CC0000649884208D10648816941F40061816172
:101CD000806900F40060009008BD0000002C014005
:101CE0000010024090F83D10012901D001207047FA
:101CF000022180F83D100168CA6842F00102CA6002
:101D000000680B49884208D0B0F1804F05D00949DE
:101D1000884202D00849884204D1816801F0070155
:101D2000062903D0016841F00101016000207047DD
:101D3000002C0140000400400008004070B504463B
:101D400090F83C000025012817D0012684F83C605B
:101D5000022084F83D002068826822F0770222F495
:101D60007F4282600868502838D00DDC20284FD090
:101D700005DC90B3102811D14AE0022070BD302854
:101D800046D040280AD13BE060282FD070280DD0E3
:101D9000B0F5805F03D0B0F5005F12D0012584F864
:101DA0003D60002084F83C00284670BDCB68D1E936
:101DB0000121206801F06BFA2068816841F0770109
:101DC00009E0CB68D1E90121206801F060FA2068C0
:101DD000816841F480418160E1E719E0CA6849689F
:101DE000206801F009FB5021206806E0CA684968B4
:101DF000206801F012FB6021206801F052FACEE762
:101E0000CA684968206801F0F7FA40212068F4E7C1
:101E1000226801461046F0E770472DE9F04104467C
:101E20000068C66805694FF00007A90713D5B10718
:101E300011D5F91E01610120207720688069800793
:101E4000204602D0FFF7E8FF04E000F0A5F82046A6
:101E500000F037F92777680716D5700714D5216881
:101E60006FF004000861022020772068806910F478
:101E7000407F204602D0FFF7CFFF04E000F08CF84F
:101E8000204600F01EF92777280715D5300713D50F
:101E900021686FF008000861042020772068C0697D
:101EA0008007204602D0FFF7B7FF04E000F074F887
:101EB000204600F006F92777E80616D5F00614D577
:101EC00021686FF010000861082020772068C06941
:101ED00010F4407F204602D0FFF79EFF04E000F0A0
:101EE0005BF8204600F0EDF82777E80708D0F00708
:101EF00006D021686FF001000861204600F068F903
:101F0000280608D5300606D521686FF080000861E4
:101F10002046FFF709FE680608D5700606D5216839
:101F20006FF040000861204600F05CF9A8060AD571
:101F3000B00608D521686FF0200008612046BDE892
:101F4000F041FFF7F2BDBDE8F081000000B585B0BB
:101F50000021009101910291039100680B49884290
:101F600012D10B48816941F00401816180696946A1
:101F700000F0040004904FF4807000900220019063
:101F800003900448FEF722FE05B000BD002C01407E
:101F90000010024000080140704770B5044690F8F8
:101FA0003C0000260D4601280FD0012084F83C009B
:101FB0006AB1042A1DD0082A2FD00C2A3FD001264E
:101FC000002084F83C00304670BD022070BD2068BF
:101FD00001F070F92068816941F008018161206891
:101FE000816921F004018161206881692A691143B6
:101FF00011E0206801F086F92068816941F40061F0
:1020000081612068816921F4806181612068816932
:102010002A6941EA02218161D2E7206801F09EF934
:102020002068C16941F00801C1612068C16921F0DF
:102030000401C1612068C1692A69114311E0206867
:1020400001F0B8F92068C16941F40061C1612068FC
:10205000C16921F48061C1612068C1692A6941EACE
:102060000221C161ACE710B5040003D094F83D0033
:1020700010B107E0012010BD002084F83C0020468C
:1020800000F01EF8022084F83D00211D206801F0B8
:10209000B5F8012084F8460084F83E0084F83F003B
:1020A00084F8400084F8410084F8420084F843003A
:1020B00084F8440084F8450084F83D00002010BDF9
:1020C0007047704710B50446022249B104290ED06A
:1020D000082913D094F84100012816D0012010BD22
:1020E00094F83E000128F9D184F83E200FE094F8DE
:1020F0003F000128F2D184F83F2008E094F8400026
:102100000128EBD184F8402001E084F8412001222D
:10211000206801F0AFF80F492068884203D1426C73
:1021200042F4004242642068884208D0B0F1804FF7
:1021300005D00949884202D00849884204D1816803
:1021400001F00701062903D0016841F00101016097
:10215000002010BD002C0140000400400008004099
:1021600030B504460D460068002201F083F8174B95
:1021700041F2111120688A10984209D1036A0B427A
:1021800006D1036A134203D1436C23F40043436432
:102190002068036A0B4206D1016A114203D101682B
:1021A00021F00101016001203DB1042D08D0082D6E
:1021B00009D084F84100002030BD84F83E00FAE7E1
:1021C00084F83F00F7E784F84000F4E7002C014072
:1021D00000680349884201D1FFF760B970470000E9
:1021E000000800407047FEE701684A69D243520583
:1021F0000FD46FF480624A61002140F8301F202222
:1022000042738173026942F004020261017301208A
:102210007047002070470000F8B50446C06A1E46AB
:102220000D461746082807D0012805D010F5803F35
:1022300002D0206B122804D12068016841F480711B
:102240000160134600224FF001112046009600F075
:102250002FF940B120680068C00502D54FF4007026
:1022600020640320F8BD2069B0F5804F0ED0062011
:10227000216800EAD51040F0F000086133463A4684
:102280000B49204600F05CF978B902E005F0FE0049
:1022900000E0E8B221680861054933463A46891FE3
:1022A000204600F04DF90028DCD00120F8BD0000E8
:1022B000080001002DE9F84F0446006889460B9D8F
:1022C00001689846174641F4806101602068016802
:1022D00041F48071016000954FF0011B00225946C6
:1022E00020460A9B00F0E4F84FF4007A40B12068E1
:1022F0000068C00501D5C4F840A00320BDE8F88FF0
:10230000216809F0FE0008612B46284920460A9AF8
:1023100000F016F9F0BB20684169806900902A46F8
:1023200020460A9900F0A2F940B1206C04283AD165
:102330002068016841F40071016034E0FEB2B8F138
:10234000010F09D02168380A08612A4620460A99F7
:1023500000F08CF90028E8D1206806612A46204662
:102360000A9900F083F90028DFD12068016841F460
:102370008071016000950022594620460A9B00F0BA
:1023800097F80028B3D1216809F0FF0040F0010060
:10239000086100E007E02B46044920460A9A00F055
:1023A000CFF80028AAD00120A8E700000200010011
:1023B0002DE9F843044600680D46DDE908970168F9
:1023C0009846164641F4807101604B4600224FF05A
:1023D00001112046009700F06BF848B120680068B2
:1023E000C00502D54FF4007020640320BDE8F883D7
:1023F000216805F0FE0008613B464A461549204623
:1024000000F09EF888B920684169806900903A46DA
:102410004946204600F02AF948B1206C042804D12E
:102420002068016841F4007101600120DEE7F5B227
:10243000B8F1010F09D02168300A08613A464946CF
:10244000204600F013F90028E7D12068056100203C
:10245000CCE700000200010070B516460D460446A8
:102460001EE02046FFF7C0FE08B1012070BD681CC9
:1024700016D0FEF7A1FC801BA84200D885B92068C1
:102480004069C04340070BD5002044F8300F20219D
:102490006173A073216941F0200121612073E4E799
:1024A00020684069C0434007DBD4002070BD0000B5
:1024B0002DE9F047984617460D460446C1F30746F6
:1024C000DDF820902AE000BFB8F1FF3F26D0FEF7EC
:1024D00073FCA0EB0901414502D8B8F1000F1DD1F2
:1024E0002068012E16D0806925EA00000004000C47
:1024F00012D00020B84211D1002044F8300F202122
:102500006173A073216941F02001216120730120D2
:10251000BDE8F0874069E7E70120EBE72068012E7E
:102520000AD0806925EA00000004000C06D00020D3
:10253000B842C9D00020EBE74069F3E70120F7E794
:102540002DE9F047984616460D4604464FF000091F
:102550004FF0200AC1F3074723E020684069C043D9
:10256000400515D42068016841F4007101602168BC
:102570006FF480604861C4F8309084F83DA084F81E
:102580003E90216C41F00401216484F83C9021E0EC
:10259000701C06D0FEF710FCA0EB0800B04203D878
:1025A00016B1012F1FD021E02068012F15D08069BE
:1025B00025EA00000004000C18D000BF44F8309F4A
:1025C00084F80DA084F80E90216941F0200121616A
:1025D00084F80C900120BDE8F087406925EA0000EE
:1025E0000004000CEAD12068406901E0206880699D
:1025F00025EA00000004000CAFD1ECE72DE9F04122
:10260000002590460E460446202728E04069C04336
:10261000C0060CD454F8301B6FF01000486144F829
:1026200010596777A577206A2062257714E0FEF7B6
:10263000C3FBA0EB0800B04200D886B9206840690F
:10264000C04340060BD544F8305F6773A57320691B
:1026500040F02000206125730120BDE8F081206852
:102660004169C9434906D1D40020F6E770B5164642
:102670000D4604461EE02046FFF7B6FD08B10120D6
:1026800070BD681C16D0FEF797FB801BA84200D8CF
:1026900085B920684069C04300060BD5002044F886
:1026A000300F20216173A073216941F02001216165
:1026B0002073E4E720684069C0430006DBD40020B3
:1026C00070BD00002DE9FE4FDFF800910022484662
:1026D000DFF8FCC0D0E90261D9E900400B46341BA9
:1026E00061EB0001501EB4EB0C0C1546174671F15E
:1026F000000C5ED3DFF8DC804FF0000CB8EB040474
:102700007CEB010C55D34C46D4E904C1BCEB060666
:1027100061EB0301304BF31A71F1000349D3DFF889
:10272000BCC00023BCEB06068B4142D300234FF014
:102730000309EA4609EB430C0CF1010104EBC1016A
:1027400004EBCC0CD1E90061DCE9008CB6EB0806A7
:1027500061EB0C015206DFF88880120E6D1C4FF001
:10276000000CB8EB06067CEB010C01D242F0010232
:10277000082D04D10AF80720002215467F1C5B1C97
:10278000202BD7DB9DF80110164CC943CBB28DF836
:1027900001309DF80310C943C9B28DF803109DF8AC
:1027A00000209A4203D19DF802308B4203D00021D1
:1027B0002160BDE8FE8FCDE9012300231A4601A95F
:1027C000E06802F083FC0020F3E7000050060020E0
:1027D00000127A0080969800E067350060EC5300A4
:1027E00040420F006800002010B5002208210A2096
:1027F00002F018FB0149C86010BD0000680000200D
:102800002DE9FC4102F000F8264C274FD4E90423BF
:10281000861A61EB030200231D46BE1B934100D2C2
:102820002560C4E90401214A236802EBC3065B1C4E
:10283000C6E900012360042B06D0442B02D1FFF728
:1028400041FF2560BDE8FC81D2E90260D2E9003792
:102850000146F31A60EB0700154FDF1B70F100070C
:10286000F0D3DFF850C00027BCEB03038741E9D366
:10287000D2E90402801B62EB01020F49411A72F196
:102880000001DFD34FEAAC030021181A9141D9D3DC
:102890000095002301951A466946E06802F016FC8F
:1028A000CFE700006800002000E1F5055006002099
:1028B00000127A008096980080841E001FB50226C0
:1028C000214C4FF0FF3901274FF000084946A0691D
:1028D00002F004FD0500F9D0206A854201D100F024
:1028E000A7FB606A854215D1002202A902F05AFCBA
:1028F0000298142801DD019606E010F1140F01DAA8
:10290000019701E0CDF8048000231A466946E0698A
:1029100002F020FBA06A8542D8D10022694602F06D
:1029200041FC019810280BD05A280BD008B1CDF8E3
:102930000C8000231A4602A9E06902F00BFBC5E7F0
:102940000396F6E70397F4E7300000202DE9FC5FDB
:102950001D46DDE90CAB1646894607004FF0000422
:1029600011D069463B2000F0A7F8804601A93C2021
:1029700000F0A2F840EA08049DF804009DF8001059
:1029800040EA01203880B9F1000F13D069463D209C
:1029900000F092F840EA040701A93E2000F08CF80C
:1029A00040EA07049DF804009DF8001040EA012069
:1029B000A9F8000096B169463F2000F07DF840EA92
:1029C000040701A9402000F077F840EA07049DF8C9
:1029D00004009DF8001040EA0120308095B169465E
:1029E000432000F069F840EA040601A9442000F001
:1029F00063F840EA06049DF804009DF8001040EAE0
:102A000001202880BAF1000F13D06946452000F05C
:102A100053F840EA040501A9462000F04DF840EAC9
:102A200005049DF804009DF8001040EA0120AAF872
:102A30000000BBF1000F13D06946472000F03CF8BE
:102A400040EA040501A9482000F036F840EA0504F0
:102A50009DF804009DF8001040EA0120ABF800004A
:102A60002046BDE8FC9F000010B500216B2000F05F
:102A700055F800216C2000F051F80921192000F0D0
:102A80004DF806211A2000F049F818211B2000F00B
:102A900045F818211C2000F041F8002204210A20EA
:102AA00002F0C0F9034C2060012002F0ACF9606034
:102AB00010BD00005C0000200EB501234FF4FA7237
:102AC000CDE9001302920246D0210248FEF7D4FA63
:102AD0000EBD0000C40800201FB50F4E002400BF2B
:102AE000FEF734F8002300941A4602A91846019410
:102AF000FFF72CFF054600F0CBFA45B9BDF90800F9
:102B0000002303901A4603A9306802F023FA32200A
:102B100001F0D0FFE4E700005C0000201CB50223B8
:102B20008DF804004FF4FA708DF80510009001AA9A
:102B3000D0210248FEF70AFA1CBD0000C40800209C
:102B40001CB5012002F05FF9114C206000F09EF9E5
:102B500000F030F900F0F8FAFFF786FFFFF744FEC7
:102B6000FDF7A0FF00210BA2084600F01BFA0C4A5B
:102B700000210C4801F0BCF8002160601820CDE96C
:102B800000010B46802208A10A4802F0A7FC1CBDE8
:102B9000840000205374617274696E670000000045
:102BA000486600086D31000847616D655461736BBC
:102BB00000000000393B000830B585B000242448EF
:102BC00002940394816941F010018161816901F0EF
:102BD00010010491816941F020018161816901F056
:102BE00020010491816941F008018161816901F04E
:102BF00008010491816941F0040181618069164DE9
:102C000000F0040004904FF48050009011480190AF
:102C100069462846FDF7DAFF6814CDE90004012073
:102C2000029069462846FDF7D1FF281500900B4811
:102C3000CDE9010469460A48FDF7C8FF00220521D5
:102C40002820FEF7C3FC2820FEF7B2FC05B030BDFB
:102C50000010024000001110000C01400000311073
:102C6000000801400D4810B50B4901600C49416056
:102C700000214FF480428160C0E90312416181610B
:102C8000C1610162FEF79EF8002803D0BDE8104044
:102C9000FDF770BF10BD0000005400407008002018
:102CA000A08601000D4810B50B4901600C49416038
:102CB00000214FF480428160C0E9031241618161CB
:102CC000C1610162FEF77EF8002803D0BDE8104024
:102CD000FDF750BF10BD000000580040C4080020A0
:102CE000A086010010B596B000240F9410941194A2
:102CF000129413941C2108A81494FDF729FD202197
:102D00006846FDF725FD2948274901604721C0E9AC
:102D1000011440F2E731C0E9031444618461FEF715
:102D200091FF08B1FDF726FF4FF480500F900FA9D7
:102D30001E48FFF703F808B1FDF71CFF1B48FFF71B
:102D400092F908B1FDF716FF139413A917481494CC
:102D5000FEF716FF08B1FDF70DFF6020089040F266
:102D6000F310CDE909040B940C940D94002208A9EA
:102D70000E480E94FFF711F908B1FDF7FBFE009421
:102D80004FF40050CDE90440029401940394694645
:102D900006480794FEF7CAFE08B1FDF7EBFE0348AC
:102DA000FFF7D4F816B010BD002C01401809002020
:102DB000FEE7FEE710B5A0B0002480216846FDF7CD
:102DC000C7FC0021204600F0A8F88021684600F0EA
:102DD00021F9641CE4B2082CF3D320B010BD00002C
:102DE00070B50C4D002400BF04F1B000C0B200F07B
:102DF000EDF8002000F0EAF8102000F0E7F805EB0D
:102E0000C410802100F006F9641CE4B2082CEBD356
:102E100070BD00001C0100202DE9F0478146C81755
:102E200001EB5070C0F3C70520F00700081A1844E2
:102E3000C01DC11700EB51709246C0F3C7070024B4
:102E4000DFF8308011E02E19082E0CD209F0FF01B6
:102E5000F0B200F062F809EBC6121FFA8AF102EB39
:102E6000080000F0D7F8641CE4B2BC42EBD3BDE824
:102E7000F08700001C0100208023036040200860D0
:102E800001201060004870471C01002010B5202070
:102E900000F09CF8022000F099F8A82000F096F8C5
:102EA0003F2000F093F8D32000F090F8002000F0CD
:102EB0008DF8402000F08AF8A12000F087F8C820A3
:102EC00000F084F8DA2000F081F8022000F07EF8AB
:102ED000812000F07BF87F2000F078F8A42000F03B
:102EE00075F8A62000F072F8D52000F06FF8802069
:102EF00000F06CF88D2000F069F8142000F066F8FE
:102F0000DA2000F063F8122000F060F8AF2000F043
:102F10005DF8BDE81040FFF74DBF10B50C4640F01E
:102F2000B00000F053F804F00F0000F04FF810204C
:102F300040EA1410BDE8104000F048B82DE9F04117
:102F40000746CE004000083E801E15464FF0FF3871
:102F5000F1B2C0B2FFF7E1FF1148002400EB051504
:102F60002819A0F5805090F8000E00F041F8641C7C
:102F7000E4B2082CF4D308EB4700F1B2C0B2FFF77B
:102F8000CCFF00242819A0F5805090F8080E00F01E
:102F90002FF8641CE4B2082CF4D3BDE8F0810000E3
:102FA000576000082DE9F04115460E4607460024FB
:102FB00006E03019C1B23846FFF7C0FF641CE4B226
:102FC0002A5D002AF5D1BDE8F08100001CB5002182
:102FD0008DF804108DF805004FF4FA70009002236C
:102FE00001AA78210148FDF7B1FF1CBD700800203F
:102FF0001CB540218DF804108DF805004FF4FA70CF
:103000000090022301AA78210148FDF79FFF1CBD13
:10301000700800200EB54FF4FA728DE80700012306
:10302000402278210148FEF755F90EBD70080020B6
:103030007FB5164E00226946306A02F0B3F8019857
:10304000002804DA019901204942019101E0019927
:103050000020642901DD042404E0322901DD02247A
:1030600000E001240121029108B1022000E00120CA
:103070000025039006E000231A4602A9F06901F03A
:1030800069FF6D1CA542F6DB7FBD0000300000200B
:10309000034800231A461946406801F05BBF000050
:1030A0005C0000202DE9FC4101F0AEFB224C0646FD
:1030B0000D46D4E90423801A204A61EB0301801AEB
:1030C00071F1000003D2C4E90465BDE8FC81DFF8BA
:1030D00070804FF480514046FDF768FE0028F4D020
:1030E000D4E90401321A65EB0103012715480021D8
:1030F000FDF730F9606000B967604FF40051404659
:10310000FDF754FE002820680FD0401CC4F80000D2
:10311000C4E90465206800906068002301901A46A5
:103120006946A06801F0D2FFCFE7401E20606068CA
:1031300040426060ECE700001800002080841E0020
:10314000000C014000CA9A3B08B50020054B0090D6
:10315000A3F1500208210A2001F085FE024988608F
:1031600008BD00006C05002018000020012000F0C0
:1031700084FDFBE710B54FF0E020006902F006FA8D
:10318000012803D0BDE8104001F016BE10BD30B5D7
:103190008FB028216846FDF7DBFA14210AA8FDF755
:1031A000D7FA01210804CDE9001000240294022579
:1031B0000491CDE907504FF4E01009906846FEF7FE
:1031C00023FB08B172B6FEE70F20CDE90A054FF4E4
:1031D0008060CDE90C4002210AA80E94FEF728FA7F
:1031E000002801D072B6FEE70FB030BD7047000076
:1031F0000148FEF712BE000060090020F0B5026829
:10320000194B1A4C1A4D4FF08047984205D0B842DE
:1032100003D0A04201D0A84203D122F070064A6830
:103220003243984205D0B84203D0A04201D0A84210
:1032300003D122F44074CA6822434C6922F0800210
:10324000224302608A68C2620A688262984201D19F
:1032500009690163012141610169C90703D001695D
:1032600021F001010161F0BD002C0140000400408B
:103270000008004010B501F01F030121046A9940C5
:103280008C430462016A9A401143016210BD10B57B
:10329000846842EA032224F47F440A432243826082
:1032A00010BD826822F070020A4342F0070181607B
:1032B0007047000030B5036A026A22F00102026220
:1032C0004268846924F073050C682C4323F00205DE
:1032D0008B682B430A4DA8420BD123F00805CB681D
:1032E00022F440722B434D6923F0040315438A698D
:1032F0002A434260846149684163036230BD000033
:10330000002C014030B5026A036A23F01003036207
:10331000436884690D6824F4E64444EA05248D6812
:1033200022F0200242EA05120B4DA8420ED1CD68D0
:1033300022F0800242EA05124D6923F4406343EA19
:1033400085038D6922F0400243EA8503436084616E
:1033500049688163026230BD002C014030B5036AC8
:10336000026A22F4807202624268C46923F4007324
:1033700024F073050C682C438D6843EA05230C4D3B
:10338000A8420ED1CD6823F4006343EA05234D69BA
:1033900022F4405242EA05128D6923F4806342EA26
:1033A00005124260C4614968C163036230BD000018
:1033B000002C014030B5046A026A22F48052026295
:1033C0004268C3690D6823F4E64343EA05238D6828
:1033D00024F4005444EA0534064DA84204D14D6952
:1033E00022F4804242EA85124260C3614968016466
:1033F000046230BD002C014010B5036A046A24F059
:1034000001040462846924F0F00444EA021423F005
:103410000A020A438461026210BD10B5036A046A9D
:1034200024F010040462846923F0A00324F470449F
:1034300044EA023243EA01118261016210BD0020B8
:10344000FDF724BBFEE70907090E002804DB00F1A5
:10345000E02080F80014704700F00F0000F1E02039
:1034600080F8141D7047000038B50C463221FDF776
:103470002FFB0020034600900348224604210068E9
:1034800002F05CFA38BD0000800000202DE9FF4FFB
:1034900093B01F4622991498DDF88080401AC0B27C
:1034A0000C9008F10700C00809900C98002600F065
:1034B00007000B9014984044C0B20590C4E00C98EB
:1034C00000EBC60000F0FF0A0AF10800C0B20A9043
:1034D0002298A8B114990A98884256D35E49C968BF
:1034E000884252D805998A45FBD8FF20119014983C
:1034F000824508D2A0EB0A01FF208840C0B200E05C
:10350000FF20119007E005990A98884203D9411AD3
:10351000FF20C840F5E750484FEADA0281684A4385
:103520000792159A06FB072206920B9A72BBC36894
:1035300081469A452AD24FF0080AB8F1080F00D206
:10354000C24600241BE013982044C5B2D9F80800F5
:10355000854212D206982199204401F037F9119939
:1035600053460140079800220544D9F80400405D05
:1035700001F03EF9D9F804104855641CE4B2BC428D
:10358000E1D3A8EB0A0000F0FF085BE00A9A44468A
:10359000D2084A430025109251E00B984446C0F1EE
:1035A000080081460F90A04200D9C14613982844D4
:1035B00000F0FF0B2848806883453ED20698219989
:1035C000284401F003F91199084023490390C96880
:1035D0008A4511D2079920485944129140684B46B8
:1035E0000B9A405C039901F003F91B4A1299526847
:1035F0005054A4EB0900C4B2FCB117480A99C26840
:1036000091421AD2C9F1080101F0FF09A14500D980
:10361000A1460F9A03991048D140109A40689344EC
:103620004B4610F80B00002201F0E2F80A49496805
:1036300001F80B00A4EB0900C4B26D1CEDB2BD4251
:10364000ABD3A046761CF6B209988642FFF437AF9A
:1036500017B0BDE8F08F000000000020FFF7C0BBEE
:1036600070B5054C2568002DFCD101252560FFF7BC
:10367000D3FB0020206070BD00000020044A10B57C
:10368000111F081FFFF7F8FB01491039486010BDF2
:10369000100000202DE9FE4F9B4691460F4606463E
:1036A0000025DFF8988043E0C5EBC50202EB090175
:1036B000CCB2082200210092CDE901712038C0B2BD
:1036C0001F4900EB80004218052359462046FFF7AA
:1036D000DDFE0823052259462046FFF7C1FF27B328
:1036E00084B1A4F1010A0AF0FF01FF235A46D8F879
:1036F000040001F071F80AF0FF0008230122594686
:10370000FFF7AEFFD8F80810491F8C420DD2641D98
:10371000E1B2FF235A46D8F8040001F05DF8E0B2A8
:10372000082301225946FFF79BFF6D1CEDB2761C62
:1037300030780028B8D1BDE8FE8F000000000020DE
:10374000725E00082DE9F0411D4616468846044683
:10375000FCF73EFFC0B2401CFCF7A6FD0746214621
:10376000FCF712FF2B46324641463846FFF792FFE0
:103770003846BDE8F041FCF7C6BD00002DE9F04F2A
:10378000E24C8FB0E088A0282AD2A078FF2827D06A
:103790000020DF4D8246686802F078F9C6B22868DA
:1037A00002F074F94FF0000B0222CDE9002B134612
:1037B000C0B2D84A3146CDF808B0FFF767FE686856
:1037C00002F064F9C6B2286802F060F9C0B20823BA
:1037D00002223146FFF744FFBAF1000F02D00BE09E
:1037E0000120D6E7A968286802F0DCF82860E968BB
:1037F000686802F0D7F86860002002902968039199
:10380000A846686802F042F90027C5B23E46A146C4
:103810005FF00004D9F80800C05DE0BBB00005907F
:1038200002F06CF9039902F07DF93AD8042000EB1C
:10383000860002F063F9039902F0F3F931D208200F
:1038400000EB84000E90A8422BD80C2000EB8400E3
:10385000A84226D964214FF4FA60FFF705FED9F893
:10386000080001210323C1550821CDE9001B0E9852
:10387000CDF808B0C1B20598A64AC0B2FFF706FE5F
:103880000E980823C1B205980322C0B2FFF7E8FEE4
:103890000120029000E004E0B9F80600401CA9F8FD
:1038A00006007F1C641CE4B2FFB2052CB2D3761C68
:1038B000F6B2202EACD3D9F80C004C46801E02F094
:1038C0001DF9039902F02EF913D293490398884207
:1038D00003DD4146C8F800B006E0E068801E02F053
:1038E0000DF94146C8F80000896881F00041C8F828
:1038F0000810039810F1FF4F07D3C8F800B0D8F8AC
:10390000081081F00041C8F808100027BAF1000F34
:1039100037D12069801F854233D3F02D31D226461E
:10392000207902F0EBF8039902F0FCF829D83079FD
:103930000C3002F0E3F8039902F073F921D8012763
:10394000C82141F28830FFF78FFD3069801F02F0F7
:10395000D5F8C8F80400D8F80C004646B0F5000FBA
:1039600002DB80F00040F060FCF764FC02F0AEF88F
:103970006FF01D0102F02DFA4FF07E5102F082F936
:10398000B0605AEA070026D12069801E854201D81E
:10399000029800B3F02D07D9C82140F6C410FFF7F4
:1039A00063FDC8F804B010E0029870B9C8214FF464
:1039B000FA60FFF759FD20692646401E02F09EF886
:1039C000C8F80400B078401EB070D8F80C1081F030
:1039D0000041C8F80C104546D8F8040002F056F82B
:1039E000C6B2286802F052F80221CDE9001B494A0C
:1039F0000B46C0B2113A3146CDF808B0FFF746FD8C
:103A0000686802F043F8C6B2286802F03FF8C0B216
:103A1000082302223146FFF723FE207858B3002600
:103A200084F800B037460025A068805DC8B9082139
:103A3000CDE9001B374A01EB85094FEA870809F0F9
:103A4000FF0108F0FF0003230F3ACDF808B0FFF79D
:103A50001DFD09F0FF0108F0FF0008230322FFF716
:103A6000FFFD761C6D1CEDB2F6B2052DDCD37F1C7C
:103A7000FFB2202FD7D3A078FF2827D0002522E03F
:103A8000A0784FF00801CDE9001B8542CDF808B0C1
:103A9000207B4FF0070300EBC500A0F11800C0B277
:103AA00001D21E4A00E01B4A0121FFF7EFFC207BF8
:103AB000082300EBC5001838C0B207220121FFF728
:103AC000CFFD6D1CEDB2E0788542D9D3E28814A118
:103AD00009A8FCF7B7FC00231A46194609A8FFF706
:103AE000D9FDE088A02805D32023322200210DA093
:103AF000FFF728FEA078FF2805D1202322220021ED
:103B00000AA0FFF71FFE0FB0BDE8F08F30000020C5
:103B1000C00500205F5E0008000070436B5E000877
:103B20002575000057494E210000000047414D45D2
:103B30004F564552210000001CB5354A111F081F81
:103B4000FFF79AF9FFF79AFDFFF788FD0022082199
:103B50000A2001F067F92E4C143CE0611E2001F0B0
:103B60005DF9A061FDF714F82062FDF70BF86062C3
:103B7000FDF702F8A062A169206A01F033F9A1699A
:103B8000606A01F02FF9A169A06A01F02BF9002504
:103B90001827CDE900752B4680221EA1214801F08F
:103BA0009DFCCDE90075002380221FA1214801F072
:103BB00095FC6570E068400801F0A0FF1E4E306083
:103BC00020690A3801F09AFF70604FF03F40B06002
:103BD0001A48F060A02000F06DFDA021A060FCF765
:103BE00095FD0320E070A070E580A089FA2101EB2B
:103BF00050002071CDE900750023802210A11448E7
:103C000001F06CFCFFF7BAFD322000F053FFF9E73A
:103C1000440000204D5055363035305F5461736B91
:103C200000000000D92A0008496E70757454617351
:103C30006B000000BD280008C00500209A9919BF3C
:103C4000706C6174666F726D5F7461736B000000FD
:103C50007D3D0008FDF72AFCFFF799FAFEF7ACFF5F
:103C6000FFF700F8FFF71EF8FFF73CF800F012F836
:103C7000FEF766FF00F020F8FEE710B5EFF30581D0
:103C800011B16FF0050403E0002408B100F012FF49
:103C9000204610BDEFF3058010B16FF005007047AE
:103CA0000448016811B14FF0FF30704701210160F5
:103CB00000207047EC00002010B5EFF3058010B134
:103CC0006FF0050010BD08480168012902D04FF0CF
:103CD000FF3010BD054A002182F8141D0221016049
:103CE00000F098FF002010BDEC0000200BE000E089
:103CF0002DE9FF414FEA01034FF00005EFF3058185
:103D0000039549BB40B38027182100244AB31668A5
:103D100006B1344696691EB13146761E382E02D25F
:103D20001679F60703D0002004B0BDE8F08156698B
:103D300006B1B708D2F808C0BCF1000F0DD0D568A5
:103D40005C2D18D312693AB136B18DE806103A46A7
:103D5000214601F0F0FB03900DE0D6685EB91269D0
:103D60004AB903AACDE90012BAB2214601F0B6FB66
:103D7000012800D003950398D6E700002D4C86B0AB
:103D8000002625790827CDE900760296207C0C23B1
:103D90000838C1B2284A2846FFF778FB207C082360
:103DA0000838C1B20C222846FFF75AFC4FF0FF3802
:103DB000424603A9E06901F0F5F904986070CDE985
:103DC00000760296207C1C4A0838C1B20C230C32C3
:103DD0002846FFF75BFB207C08230838C1B20C2281
:103DE0002846FFF73DFC6078012802D0022802D067
:103DF00003E0ED1C00E0ED1EEDB26670FA2D01D976
:103E0000002502E0742D00D97425CDE900760296D4
:103E1000207C0C230838C1B2074A2846FFF736FB3E
:103E2000207C08230838C1B20C222846FFF718FC72
:103E30002571BDE730000020535E00082DE9F041F8
:103E4000134C0F460546E6682068001D00F0FEFC96
:103E5000681C07D137B12168BDE8F0410D48091D44
:103E600000F044BD20683544B5424560216805D264
:103E7000A06BBDE8F041091D00F020BD606B091D7D
:103E800000F01CFDA06A854200D2A562BDE8F08169
:103E90009C000020980E00202DE9F041054600F01E
:103EA00031FD2D4CA068401CA06020682B4F10B144
:103EB000606930B32BE02560A068012827D1002677
:103EC00006EB860007EB800000F0EAFC761C382E3B
:103ED000F6D3234800F0E4FC2148143000F0E0FC65
:103EE0001F48283000F0DCFC1D483C3000F0D8FCB6
:103EF0001B48503000F0D4FC194860631430A063B4
:103F000005E02068E96AC06A884200D82560606AD6
:103F1000401C60626864E86A2169884200D92061B7
:103F200000EB800007EB8000291D00F0DFFC00F0B3
:103F300009FD606900280CD02068E96AC06A8842DF
:103F400007D208494FF080500860BFF34F8FBFF38E
:103F50006F8FBDE8F08100009C000020E809002080
:103F6000480E002004ED00E038B500F0CBFC104C0A
:103F70002068C8B90F4800F093FC0E48143000F0D8
:103F80008FFC0C48E060143020610A4B0020F43BA9
:103F9000009003F1540210210A2000F064FF206019
:103FA00010B105A100F050FDBDE8384000F0CABCDA
:103FB000D8000020A00F0020546D725100000000B6
:103FC00030B4026C0B46002A0BD0C1681144C160AA
:103FD0008468A14201D30168C16030BC1846FCF777
:103FE00016BB30BC70472DE9F041856B174604467F
:103FF0000026026C82B1C7B1E068FCF708FBE168FB
:10400000206C091AE1602268914202D2A168081A64
:10401000E060022F16D017E02068A8B9A06801F070
:104020002DFB06460020A0600EE06068FCF7EFFA6A
:10403000216C606808446060A168884204D32068ED
:10404000606001E005B16D1E6D1CA5633046BDE8E2
:10405000F08110B5044690F8590058B101280CD0F1
:1040600002280FD0502080F31188BFF34F8FBFF389
:104070006F8FFEE7206B00F079FC2046BDE8104012
:1040800000F074BC10BD000010484FF4FA51420714
:1040900006D0C01D0D4920F00700411AC1F5FA51A4
:1040A0000B4A00230144C2E900030839183A21F001
:1040B000070111604B600B600B1AC0E9001393609D
:1040C0004FF00040536050617047000080160020A0
:1040D00008010020144E154CA6F29C474FF0805862
:1040E000DFF84C9012E000BF00F00CFCF068C568EF
:1040F000281D00F0ABFBA068401EA0606068401E59
:10410000606000F01FFC2846FFF7A3FF60680028EE
:10411000EAD138680128F9D9C9F80080BFF34F8F78
:10412000BFF36F8FF2E70000840E00209C00002098
:1041300004ED00E0002807D00021816001600B46FB
:104140000A46C16000F006BF7047000070B51D460A
:10415000049C61B1C4F80020C4E90F01012120468C
:1041600000F0B4FE84F850500020A06470BD2460BC
:10417000F2E700002DE9F05F8846DDE90B94154673
:10418000834691009A460A9EA522206BFCF7B6FA58
:104190006FF00301206B01EB8501084420F0070755
:1041A000780707D0502080F31188BFF34F8FBFF3FB
:1041B0006F8FFEE70025B8F1000F0FD05FF0000011
:1041C000221818F8001082F8341018F8001011B1F5
:1041D000401C1028F4D384F8435001E084F8345094
:1041E000382E00D33726E662C4E91365201D00F09F
:1041F00062FB04F1180000F05EFB2461C6F1380098
:104200006462A061656584F8585052465946384644
:1042100000F0CAFA2060B9F1000F01D0C9F80040DF
:10422000BDE8F09F2DE9F0471E46DDE908941746EA
:104230000D00804615D0002C11D0FFF795FE04F13B
:104240001801C4F8008081E86002201D00F033FBF3
:10425000002F04D014F8280F40F004002070BDE8AF
:10426000F087502080F31188BFF34F8FBFF36F8F1B
:10427000FEE7000030B5114900E011460A688242AD
:10428000FBD34B685C18844203D1406818444860F3
:10429000084643681C18944209D1084C183C24680D
:1042A000A24209D052681A4442600A681268026049
:1042B000814200D0086030BD0460F9E708010020A9
:1042C00070B5002441600B4D0061914206D8D11AAF
:1042D0008269914206D2011D286907E09A4203D201
:1042E000994201D3012403E0011DE86800F0E6FAD9
:1042F000204670BDD800002010B5044600F002FB37
:10430000A06B28B15FF0000400F01CFB204610BD3C
:104310000124F9E7F1B500260098846C5CB1A16B2B
:10432000E06B81420FD3502080F31188BFF34F8F91
:10433000BFF36F8FFEE7502080F31188BFF34F8FDC
:10434000BFF36F8FFEE7A16B81420CD294F9455009
:10435000002269462046FFF746FE0646681C04D048
:104360006D1C84F845503046F8BD606A0028FAD0CC
:1043700004F1240001F0FEF90028F4D00126F2E750
:1043800030B589B03C4D6EE00498002806DADDE9CE
:104390000601059A90470498002864DB069C606932
:1043A00010B1201D00F052FA03A800F0D7F8024621
:1043B00004980A2857D2DFE800F00505052D334A96
:1043C00005052D3394F8280040F0010084F82800FA
:1043D0000599A069059B01442046FFF771FF68B36A
:1043E000216A2046884794F8280040073BD50020E2
:1043F00000900598A169002342181946204601F053
:104400009DFAD8B9502080F31188BFF34F8FBFF3C6
:104410006F8FFEE714F8280F20F00100207022E0D3
:1044200094F8280040F0010084F828000598A06165
:1044300028B1811813462046FFF742FF13E05020B1
:1044400080F31188BFF34F8FBFF36F8FFEE794F8AF
:104450002800810703D4204600F088FA03E020F00A
:10446000010084F82800002204A9286800F09AFEC0
:10447000002889D109B030BDD80000202DE9FC41C9
:104480000F46054600F00AFC01A800F067F8044654
:10449000019818B101F0A6F9BDE8FC81254EAFB135
:1044A00030690068D0B30027291B3A46306800F015
:1044B000DFFA01F097F90028EED11F494FF0805044
:1044C0000860BFF34F8FBFF36F8FE5E7A542EBD8CE
:1044D00001F088F9F0682746C068C468201D00F024
:1044E000B5F994F82800410719D5A0692B46411960
:1044F0003A462046FFF7E4FEA8B1002003460146F5
:1045000000902A46204601F019FA60B9502080F345
:104510001188BFF34F8FBFF36F8FFEE707E020F0E6
:10452000010084F82800216A20468847B4E7012763
:10453000BAE70000D800002004ED00E00648416B17
:10454000096829B1416BC968C968496881627047C7
:104550004FF0FF31FAE700009C00002070B50546DF
:1045600001F022F8064E0446B068844203D200F0FF
:1045700009F8012000E0002028602046B46070BDEA
:10458000D8000020F8B5194D20E0C068C46806685E
:10459000201D00F05BF9216A2046884794F8280026
:1045A000400713D5A0693044B04206D92461606049
:1045B000211DE86800F082F908E00020034601466A
:1045C00000903246204601F0B9F938B1E868016838
:1045D0000029DAD12969C5E90310F8BD502080F31C
:1045E0001188BFF34F8FBFF36F8FFEE7D800002015
:1045F00008484068401C4FF0500080F3118804D0F8
:10460000BFF34F8FBFF36F8FFEE7BFF34F8FBFF343
:104610006F8FFEE710010020074CE068016841B190
:10462000C0680021D0F80000FFF728FFFFF7A8FEC0
:10463000F3E701210020F7E7D80000202DE9F04141
:10464000044600F05FF994F9455004F124060FE0A8
:10465000A06C18B12046FFF75DFE04E0606A48B127
:10466000304601F087F808B100F052FA6D1E6DB2C5
:10467000002DEDDC4FF0FF3684F8456000F062F964
:1046800000F040F994F9445004F1100709E0206962
:1046900048B1384601F06EF808B100F039FA6D1EE5
:1046A0006DB2002DF3DC84F84460BDE8F04100F009
:1046B00049B900002DE9F0410546002700F0EEFA67
:1046C000324E306808B9FFF7DFFC706905424ED101
:1046D000C5B3083568070ED005F00700C0F1080023
:1046E0000544680707D0502080F31188BFF34F8F2F
:1046F000BFF36F8FFEE72DB37068854237D823482C
:10470000183001460C6801E020460C466168A94259
:1047100002D221680029F7D131688C4227D007687E
:104720002168016060680837411B10290FD96019A2
:10473000420708D0502080F31188BFF34F8FBFF39A
:104740006F8FFEE713E041606560FFF793FD6168DE
:104750007068401A7060B268904200D2B0607069B0
:1047600001430020C4E90001F068401CF06001F042
:1047700039F8780707D0502080F31188BFF34F8FA6
:10478000BFF36F8FFEE73846BDE8F081F0000020F0
:104790000449086818B10868026D521C026508686F
:1047A000704700009C00002010B5031F4FF080747C
:1047B0001C601B1F21F001011960191F024B0B60C7
:1047C000143940380A6010BDF1450008007800290E
:1047D00001D0C043C0B2704710B5044CD208A468E1
:1047E00002FB0411425C1A43425410BD0000002039
:1047F00010B501249C40641E21409440A043914088
:104800000143C8B210BD00002DE9F0410D4CFCF78A
:10481000D3FA22680023516AD26A0B4DA0FB0547E8
:1048200003FB057500FB0355074FA1FB070C03FBBA
:1048300007C701FB0371FBF78DFD00196941BDE856
:10484000F08100006009002040420F00D0E90132F1
:1048500001699A60D0E901235A604A68824201D115
:1048600082684A60002202610868401E0860086889
:1048700070470000034B036003F15C000860802078
:1048800010607047C80F0020044B036003F15C0008
:1048900008604FF480701060704700002412002000
:1048A00000F108014FF0FF32C0E90112C16001615F
:1048B00000210160704700210161704730B50B682D
:1048C0005A1C02D000F1080202E0026904E022460C
:1048D000546825689D42FAD953684B6099608A6094
:1048E000516008610168491C016030BD42684A603E
:1048F00093688B6093685960916008610168491CF6
:1049000001607047502080F31188BFF34F8FBFF3D1
:104910006F8F0A494868401C486001280CD108483C
:10492000006810F0FF0F07D0502080F31188BFF30C
:104930004F8FBFF36F8FFEE770470000100100201C
:1049400004ED00E00849486828B1401E486001D1E4
:1049500080F311887047502080F31188BFF34F8F88
:10496000BFF36F8FFEE700001001002070B5002834
:104970002AD0164DA0F1080460686969084207D181
:10498000502080F31188BFF34F8FBFF36F8FFEE786
:1049900022683AB1502080F31188BFF34F8FBFF3E4
:1049A0006F8FFEE78843606000F078F9606869689F
:1049B000084468602046FFF75DFC2869401C2861B8
:1049C000BDE8704000F00EBF70BD0000F000002098
:1049D0004FF0E02000210161816105494FF47A72B6
:1049E0000968B1FBF2F1491E41610721016170477D
:1049F0009800002010B5FBF719FC114910280ED3C0
:104A000000F1E02090F8F0030A78904207D250209D
:104A100080F31188BFF34F8FBFF36F8FFEE7094814
:104A20000068896800F4E060884207D9502080F36C
:104A30001188BFF34F8FBFF36F8FFEE710BD0000EB
:104A4000100100200CED00E010B5084B002200BF63
:104A500053F832401CB1521C082AF9D310BD43F858
:104A6000321003EBC201486010BD0000A80900200D
:104A700070B515460E460446FFF744FF94F94410FE
:104A80000020491C01D184F8440094F94510491CC8
:104A900001D184F84500FFF755FFA06B28B92A46DD
:104AA000314604F1240000F051F82046BDE8704082
:104AB000FFF7C4BD10B5020014D00F48006B38B129
:104AC000502080F31188BFF34F8FBFF36F8FFEE745
:104AD00000F0E4F800211046FFF7B0F900F082FE84
:104AE000002807D105494FF080500860BFF34F8F71
:104AF000BFF36F8F10BD00009C00002004ED00E0AC
:104B000002490A6A0260C968416070479C0000203F
:104B100001490120C86170479C00002010B50C4677
:104B200050B1094909681831FFF7C8FE2046BDE8B1
:104B300010400121FFF782B9502080F31188BFF3A4
:104B40004F8FBFF36F8FFEE79C00002070B51446B7
:104B50000D4668B10A4909681831FFF7C7FE0CB164
:104B60004FF0FF3521462846BDE87040FFF766B993
:104B7000502080F31188BFF34F8FBFF36F8FFEE794
:104B80009C00002070B504003ED0226DA2B1E06C04
:104B9000884200D30146E06A884235D0012A33D1E9
:104BA0001A4D2A6894420FD1502080F31188BFF328
:104BB0004F8FBFF36F8FFEE7502080F31188BFF354
:104BC0004F8FBFF36F8FFEE7E162A269002A02DB1D
:104BD000C1F13801A1610E4E00EB8000616906EB66
:104BE0008000814210D1201DFFF730FEE06A296964
:104BF000884200D9286100EB800006EB8000211D6F
:104C0000BDE87040FFF772BE70BD00009C00002040
:104C1000E809002030B587B00024039405AA04A950
:104C200003A80494FFF726FEDDE903010094CDE913
:104C30000110002315A11748059A00F07CFC164DC1
:104C40000028E8621FD000F049FE012809D0401C6E
:104C500019D1502080F31188BFF34F8FBFF36F8FAE
:104C6000FEE7502080F31188BFF34F8FBFF36F8FA3
:104C70004FF0FF30A86201206861EC6007B0BDE82A
:104C8000304000F045B807B030BD000049444C4505
:104C900000000000D54000089C0000200248016B85
:104CA000491C0163704700009C000020164810B5A5
:104CB000016B11B10121C16110BD0021C161016908
:104CC000124A01E0B9B1491E01EB810352F82330C9
:104CD000002BF7D001EB810302EB830202F1080401
:104CE00053685B685360A34201D15B685360DA6824
:104CF0000260016110BD502080F31188BFF34F8F17
:104D0000BFF36F8FFEE700009C000020E809002041
:104D10001CB5264908780190FF20087008788DF8A6
:104D200000009DF800009DF8002000F0F000904287
:104D300007D0502080F31188BFF34F8FBFF36F8FE0
:104D4000FEE79DF800001A4C00F05000207007208C
:104D5000A06005E09DF8002052008DF80020401E64
:104D60009DF800201206F5D4A060032807D050203B
:104D700080F31188BFF34F8FBFF36F8FFEE74FF4BF
:104D80004070A060019808700A48016841F4700101
:104D90000160016841F070410160FFF719FE0020D9
:104DA0006060FBF70DFA00201CBD000000E400E08D
:104DB0001001002020ED00E010B5502080F3118894
:104DC000BFF34F8FBFF36F8F00F0F4FB18B10449AE
:104DD0004FF080500860002080F3118810BD000063
:104DE00004ED00E070B50D460446FFF78BFDA06CA6
:104DF00008B9A06B08B1002401E0A5640124FFF705
:104E0000A1FD204670BD10B502460021012000F032
:104E100009F80446FFF78EF9204610BD0022042150
:104E2000AFF30080F8B517460E46050013D005FB1A
:104E300006F05430FFF73EFC04000AD0002084F84E
:104E4000460004F154023B46314628460094FFF7E1
:104E50007DF92046F8BD502080F31188BFF34F8FB5
:104E6000BFF36F8FFEE738B5049D18B153B1CAB1D7
:104E700081B120E0502080F31188BFF34F8FBFF342
:104E80006F8FFEE7502080F31188BFF34F8FBFF381
:104E90006F8FFEE7502080F31188BFF34F8FBFF371
:104EA0006F8FFEE739B1502080F31188BFF34F8F29
:104EB000BFF36F8FFEE754241C46012384F846306D
:104EC0002B460094FFF742F9204638BD70B50D46D9
:104ED000040025D0FFF716FDD4E90F20216802FB5E
:104EE0000011A1600021A163216861600A46D4E934
:104EF0000F01401E00FB0121E16021464FF0FF3011
:104F000001F8440F487004F110008DB1FFF7C8FCA0
:104F100004F12400FFF7C4FCFFF714FD012070BD6D
:104F2000502080F31188BFF34F8FBFF36F8FFEE7E0
:104F300021690029F0D000F01DFC0028ECD00449C4
:104F40004FF080500860BFF34F8FBFF36F8FE3E7E0
:104F500004ED00E02DE9FF4782B01D468A464FF080
:104F60000008040003D0BAF1000F08D011E050206F
:104F700080F31188BFF34F8FBFF36F8FFEE7206C74
:104F800038B1502080F31188BFF34F8FBFF36F8F7C
:104F9000FEE7022D0AD1E06B012807D0502080F3F4
:104FA0001188BFF34F8FBFF36F8FFEE700F0EEFA6B
:104FB000454F4FF000094FF0805648B9049838B17A
:104FC000502080F31188BFF34F8FBFF36F8FFEE740
:104FD000FFF798FCA06BE16B884207D3022D05D048
:104FE000049838B3B8F1000F27D02BE0D4F83880FC
:104FF0002A4651462046FEF7F6FFA16C41B1022D2C
:1050000002D1B8F1000F0FD12046FFF783F905E078
:10501000616A19B104F1240000F0ACFB20B13E60DC
:10502000BFF34F8FBFF36F8FFFF78CFC012006B0EB
:10503000BDE8F087FFF786FC22E06846FFF760FDD9
:105040004FF00108FFF77EFCFFF728FEFFF75AFC40
:1050500094F94400401C01D184F8449094F945002F
:10506000401C01D184F84590FFF76CFC04A9684608
:1050700000F0FAF930B12046FFF7E0FA00F0B2FB99
:105080000020D4E7FFF73EFCA06BE16B884213D110
:10509000FFF758FC04F110000499FFF73FFD20468C
:1050A000FFF7CCFA00F09EFB002891D13E60BFF3E1
:1050B0004F8FBFF36F8F8BE7FFF744FC2046FFF75E
:1050C000BDFA00F08FFB83E704ED00E02DE9F04727
:1050D0001F4616468A46040003D0BAF1000F08D0D6
:1050E00011E0502080F31188BFF34F8FBFF36F8F13
:1050F000FEE7206C38B1502080F31188BFF34F8F4A
:10510000BFF36F8FFEE7022F0AD1E06B012807D0B3
:10511000502080F31188BFF34F8FBFF36F8FFEE7EE
:10512000FFF768FC5021EFF3118081F31188BFF382
:105130004F8FBFF36F8F8046A06BE16B884207D320
:10514000022F05D05FF0000088F31188BDE8F087DA
:1051500094F94550D4F838903A4651462046FEF727
:1051600042FF681C04D06D1C84F845500120EBE719
:10517000A06C012540B1022F02D1B9F1000FF5D189
:105180002046FFF7C7F806E0606A0028EED004F179
:10519000240000F0EFFA0028E8D0002EE6D03560B9
:1051A000E4E700002DE9F747002683B08A460400B3
:1051B00003D0BAF1000F08D011E0502080F311881D
:1051C000BFF34F8FBFF36F8FFEE7206C38B15020D5
:1051D00080F31188BFF34F8FBFF36F8FFEE700F0AE
:1051E000D5F9DFF8F4804FF000094FF0805748B947
:1051F000059838B1502080F31188BFF34F8FBFF36B
:105200006F8FFEE7FFF77EFBA56BC5B151462046C9
:10521000FEF7D6FE6D1EA563206950B104F11000A3
:1052200000F0A8FA28B1C8F80070BFF34F8FBFF3A1
:105230006F8FFFF787FB012006B0BDE8F087059868
:1052400008B11EB106E0FFF77DFB27E06846FFF7D7
:1052500057FC0126FFF776FBFFF720FDFFF752FB17
:1052600094F94400401C01D184F8449094F945001D
:10527000401C01D184F84590FFF764FB05A96846FE
:1052800000F0F2F8002820460AD0FFF7D7F900F026
:10529000A9FA2046FFF730F80028B3D00020CBE76A
:1052A000FFF72AF890B104F124000599FFF736FCC6
:1052B0002046FFF7C3F900F095FA0028A2D1C8F8FC
:1052C0000070BFF34F8FBFF36F8F9BE72046FFF750
:1052D000B5F900F087FA95E704ED00E008B5002283
:1052E00000920A466946FFF75DFF009808BD00007E
:1052F0002DE9F343002683B00400354609D0206C25
:1053000078B1502080F31188BFF34F8FBFF36F8FB8
:10531000FEE7502080F31188BFF34F8FBFF36F8FEC
:10532000FEE700F033F9DFF83C814FF000094FF061
:10533000805748B9049838B1502080F31188BFF3E2
:105340004F8FBFF36F8FFEE7FFF7DCFAA06BC8B19A
:10535000401EA063206810B9FFF71AFAA060206908
:1053600050B104F1100000F005FA28B1C8F800703F
:10537000BFF34F8FBFF36F8FFFF7E4FA012005B043
:10538000BDE8F083049808B166B10FE03DB150204C
:1053900080F31188BFF34F8FBFF36F8FFEE7FFF7E6
:1053A000D1FA5DE06846FFF7ABFB0126FFF7CAFACA
:1053B000FFF774FCFFF7A6FA94F94400401C01D1F2
:1053C00084F8449094F94500401C01D184F845903C
:1053D000FFF7B8FA04A9684600F046F8002820460E
:1053E00012D0FFF72BF900F0FDF92046FEF784FFFD
:1053F0000028A9D09DB3FFF785FA606A50B3206BEF
:105400000068C0F1380126E0FEF776FFE0B12068C1
:1054100038B9FFF777FAA06800F070F90546FFF792
:1054200091FA04F124000499FFF778FB2046FFF776
:1054300005F900F0D7F9002886D1C8F80070BFF34D
:105440004F8FBFF36F8F7FE72046FFF7F7F800F02D
:10545000C9F979E70021A068FFF794FB9FE7FFE710
:1054600000208CE704ED00E02DE9F0410C4605003A
:1054700011D0C4B1FFF746FA174BDA686E6820689E
:10548000911B471C17D02F681B6A9F4219D0964268
:1054900017D8012410E0502080F31188BFF34F8FFC
:1054A000BFF36F8FFEE7502080F31188BFF34F8F5B
:1054B000BFF36F8FFEE70024FFF744FA2046BDE8F4
:1054C000F081884205D9401A20602846FFF718FB72
:1054D000F1E700202060DCE79C0000202DE9FF5F61
:1054E0008346DDE90E87994616468A469000FFF707
:1054F000E1F805001CD05C20FFF7DCF8040014D0B4
:105500000020256384F85900CDE90240CDE90087E9
:105510004B46324651465846FEF72CFE2046FEF7D3
:10552000BBFC012004B0BDE8F09F2846FFF71EFA3F
:105530004FF0FF30F6E7F0B585B0DDE90B640A9D6A
:10554000A6B1DCB15C2700972663022684F8596077
:10555000002604AFCDE90246CDE90057FEF70AFE6A
:105560002046FEF799FC049805B0F0BD502080F36A
:105570001188BFF34F8FBFF36F8FFEE7502080F38A
:105580001188BFF34F8FBFF36F8FFEE70548416966
:1055900019B1006B18B1002070470120704702203C
:1055A000704700009C0000200148C0687047000060
:1055B0009C0000202DE9F0412E4C0027206B28B1E3
:1055C000A069401CA0613846BDE8F081E668761C01
:1055D000E66013D1606B006838B1502080F3118809
:1055E000BFF34F8FBFF36F8FFEE7606BA16B6163FB
:1055F000A063206A401C2062FEF7A0FFA06ADFF8CB
:105600007880864209D3606B0068A0B1606BC06887
:10561000C5686868864211D2A0622068C06A00EB43
:10562000800158F82100012800D90127E0690028ED
:10563000C9D00127C7E74FF0FF30EDE7281DFFF77E
:1056400005F9A86A18B105F11800FFF7FFF8E86A34
:105650002169884200D9206100EB800108EB8100BC
:10566000291DFFF743F9E86A2168C96A8842CAD34D
:105670000127C8E79C000020E809002070B504005D
:105680004FF0000133D01B4D2868844207D05020D2
:1056900080F31188BFF34F8FBFF36F8FFEE7206D4C
:1056A00038B1401E2065E36CE26A9A421FD040B1D7
:1056B0001DE0502080F31188BFF34F8FBFF36F8F31
:1056C000FEE7201DFFF7C2F8E06CE062C0F1380091
:1056D000A061E06A2969884200D92861064900EB87
:1056E000800001EB8000211DFFF700F90121084631
:1056F00070BD00009C000020E809002070B5040087
:105700004FF000002BD0194DE16A2A68D26A91420D
:1057100026D2A069002804DB2868C06AC0F13800DE
:10572000A061134E01EB8101606906EB81018842A3
:1057300011D1201DFFF78AF82868C06AE062296944
:10574000884200D9286100EB800006EB8000211D13
:10575000FFF7CCF802E02868C06AE062012070BD63
:10576000E16C2A68D26A9142F8D370BD9C00002097
:10577000E809002070B5C068C46854B104F118008D
:105780000646FFF763F8144D286B50B131461348B5
:1057900015E0502080F31188BFF34F8FBFF36F8F58
:1057A000FEE7201DFFF752F8E06A2969884200D918
:1057B00028610B4900EB800001EB8000211DFFF701
:1057C00095F8E06A2968C96A884202D90120E8612F
:1057D00070BD002070BD00009C000020700E0020F5
:1057E000E80900202DE9F0472C4D00242746286BBE
:1057F00038B1FFF787F8286B401E2863286B40B14B
:1058000046E0502080F31188BFF34F8FBFF36F8FB6
:10581000FEE7A968224E0120D1B3A6F59169804622
:105820003068E0B1F068C46804F11800FFF70EF8C2
:10583000201DFFF70BF8E06A2969884200D928612A
:1058400000EB800109EB8100211DFFF74FF8E06AB2
:105850002968C96A8842E3D3C5F81C80E0E70CB127
:10586000FEF76CFEAC694CB14FEA0806FFF7A2FEEA
:1058700000B1EE61641EF9D10020A861E86938B179
:105880000849012738070860BFF34F8FBFF36F8FB8
:10589000FFF758F83846BDE8F08700009C0000206C
:1058A000700E002004ED00E02DE9FC4781461E4605
:1058B000174688462C200A9DFEF7FCFE04000AD0FD
:1058C000002084F82800CDE9005433463A4641468A
:1058D0004846FEF7A7FC2046BDE8FC8710B586B019
:1058E000FEF742FB114C2068B8B1002003900490F1
:1058F00005AA04A903A8FEF7C7FFDDE903210220DA
:105900008DE8070000230AA10B48059AFFF713FE54
:10591000606010B106B0012010BD502080F31188E6
:10592000BFF34F8FBFF36F8FFEE70000D80000205A
:10593000546D722053766300194600082DE9FF412B
:105940001E46134602000A9D4FF0000016D0144C6C
:105950002768002F0FD0CDE900130292062917DA2D
:10596000FFF714FE02284FF000030FD00022694613
:105970002068FFF7EFFA04B0BDE8F081502080F313
:105980001188BFF34F8FBFF36F8FFEE72A46EEE714
:105990000023324669463846FFF798FBEBE70000E4
:1059A000D800002090EA010F48BF81F0004100F1CB
:1059B0007081421A3CBF801A89184FEAD0524FF0CA
:1059C0007F4C1CEA410FA2EBD15318BF9CEA026F37
:1059D00000F03B804FF0004C4CEA00204CEA0121E3
:1059E00021FA03FC10EB0C0C1ED202F1FF325FEA2D
:1059F0001C2040EBC25038BF70471CF07F0F4FEAAD
:105A0000400C18BFBCF17F4F38BF7047C3F1200373
:105A1000994008BF20F00100BCF17F4F38BF7047AC
:105A2000A0F1C04000F0F8B84FEA3C00000A40EB9B
:105A3000C25028BF1CF0FF0F4FEA400CE6D018BF41
:105A4000BCF17F4F38BF7047EAE79CEA026F05D090
:105A500010EA5C0F08BF00F00040704710B500F07E
:105A600095F800BF64FBBE3E014800F080B900BF5E
:105A70000000C07F401058BFC0F14040491058BFDF
:105A8000C1F140418142EFF300807047C10DD1F177
:105A90009E0206DB4FEA002343F0004323FA02F0A4
:105AA0007047004207D54FEA4001B1F1FE4F02D2E4
:105AB0004FF00000704710B500F068F8499224805C
:105AC000002070476FEA20007047000010F000418E
:105AD00048BF4042B0FA80F310FA03F2C3F19D03CD
